S00D00004F53412D312E73726563D6
S11300000C942A000C943C000C943C000C943C008E
S11300100C943C000C943C000C943C000C943C006C
S11300200C943C000C943C000C943C000C94A200F6
S11300300C943C000C943C000C943C000C943C004C
S11300400C943C000C943C000C943C000C943C003C
S11300500C943C0011241FBECFE5D8E0DEBFCDBF19
S113006020E0A0E6B0E001C01D92A73AB207E1F794
S11300700E94C6000C9425030C940000CF93DF93D8
S1130080CDB7DEB78FEF8ABB85E58BBB8BB380958D
S11300908BBB84E190E00E942F020E94FE01F6CF08
S11300A0CF93DF93CDB7DEB717BA8FEF88BB86B394
S11300B0809360000E94FE01FACFCF93DF93CDB707
S11300C0DEB78FEF84BB15BA8091600085BB0E94B8
S11300D0FE01FACF6EE370E080E00E94E40260E586
S11300E070E081E00E94E4026DE570E082E00E942D
S11300F0E4020E942602E0916700F091680080818A
S11301008F7B80830E942B022091670030916800CE
S113011080916700909168002817390759F40E946C
S113012026028091A0008F7B8093A0000E942B0266
S11301300C940E02089583E083BF12BE1CBE81E0BE
S113014089BF08951F920F920FB60F9211242F9317
S11301503F934F935F936F937F938F939F93AF934B
S1130160BF93EF93FF930E949D02FF91EF91BF9184
S1130170AF919F918F917F916F915F914F913F913B
S11301802F910F900FBE0F901F901895CF93DF9370
S1130190CDB7DEB70E946C020E949B0078946AE699
S11301A070E080E00E94E40280919F008F7E809343
S11301B09F0080919F00886080939F00109261004F
S11301C010926E0080919F0082FD0BC084E08093AA
S11301D0A600E091A600F0E0E759FF4F80818093EC
S11301E06900809169002CE0829FC001112481592B
S11301F09F4F9093680080936700E0916700F091AF
S1130200680080818093A0008091A00086FF8EC04A
S11302108091A00088230CF489C08091A00083FD04
S113022043C0CF93DF930E94D7010E94D201609113
S1130230A00068728FB7F8947C91777D762B7C93BD
S11302408FBFDF91CF9180919F0083FD2DC080915E
S1130250A00083FD05C080919F0088230CF0A4CFEB
S113026040916900E42FF0E0EF55FF4F80819091B9
S11302706E00891B8083809162008093A6000DC06C
S1130280282F30E0F901E759FF4F9081F901E65931
S1130290FF4F908381508093A6008091A600811126
S11302A0EFCF40936A0080CF8091A00084FF04C008
S11302B08091A00085FF3AC08091A00083FF36C0E2
S11302C02091690030E0F901EF55FF4F8081809360
S11302D06300882384F0885F80936300E091670063
S11302E0F091680090819770891B80936300F901F5
S11302F0EF55FF4F808380916300909161009817C0
S113030078F490936E00809361008091A6008150F0
S11303108093620080919F00806180939F0006C05B
S113032090916E00981710F480936E0080919F0056
S113033082FD07C08091A60081508093A6008111A0
S113034048CF80919F0084FF2FCF80919F00877FAB
S113035080939F0080919F008F7780939F00E0910E
S11303606200F0E0E659FF4F8081809369002CE041
S1130370829FC001112481599F4F909368008093FC
S11303806700E0916700F091680080818093A0008D
S11303908091A00086FF08CF8091A00088230CF4F0
S11303A003CF3FCFA0916700B091680008956DB767
S11303B0609364006EB7609365000E94D2016D91F2
S11303C06093A0006D917D91CD91DD91D7FF02C026
S11303D0CDB7DEB79FB7F894CDBFDEBF9FBF6F9395
S11303E07F936D91762F662341F089918D91899346
S11303F07A95E1F76395C61BD10908950E94D2014D
S11304006D916F917F917D936D93CD93DD938091E9
S1130410A00088608093A0000C940E021C9270913E
S113042064007C1B725041F0753030F47D93699107
S113043069916D937A95E1F760916400709165001C
S11304408FB7F8946DBF7EBF8FBF08956FB7609369
S11304506600F8940895609166006FBF0895CF9385
S1130460DF93EC010E9426028091A0008F7D80938F
S1130470A000E0916700F091680080818F7E808306
S11304800E942B02209729F1D195C195D109E091C1
S11304906700F0916800D387C2870E942602E0912A
S11304A06700F0916800808188608083E091670034
S11304B0F09168008081806180830E942B0280918A
S11304C0A00080618093A0008091A0008860809348
S11304D0A000DF91CF91089510929F00EFE6F0E025
S11304E080818F7B8083ABE7B0E08C918F7B8C9392
S11304F0A7E8B0E08C918F7B8C93A3E9B0E08C915A
S11305008F7B8C93F0936800E093670084E0809382
S1130510630080916300282F30E02150310981501D
S1130520F901E659FF4F8083F901EF55FF4F10821F
S1130530809363008111EDCF089580916F0084FF53
S11305400CC0EFE6F0E0828593850196938782875D
S1130550892B19F480818F7E808380917B0084FFB6
S11305600EC0EFE6F0E0868997890196978B868B1B
S1130570892B29F4EBE7F0E080818F7E80838091E2
S1130580870084FF0EC0EFE6F0E082A193A10196FC
S113059093A382A3892B29F4E7E8F0E080818F7E7E
S11305A080838091930084FF0EC0EFE6F0E086A57F
S11305B097A5019697A786A7892B29F4E3E9F0E08C
S11305C080818F7E80830895CF93DF931F92CDB770
S11305D0DEB7898380919F008D7F80939F00109266
S11305E06300EFE6F0E0808186FD1EC089818064AF
S11305F088608983728361831386128680838091E5
S1130600670090916800E817F90719F489818093CD
S1130610A00080E090E894838383158280919F00FA
S11306208D7F80939F000DC03C96809163008F5F07
S1130630809363008430B8F280919F00826080933D
S11106409F000F90DF91CF910895F894FFCFA3
S9030000FC
